{
  "_format": "hh-sol-artifact-1",
  "contractName": "PARTYBOARDNFT",
  "sourceName": "contracts/partyboard.sol",
  "abi": [
    {
      "inputs": [],
      "stateMutability": "nonpayable",
      "type": "constructor"
    },
    {
      "anonymous": false,
      "inputs": [
        {
          "indexed": true,
          "internalType": "address",
          "name": "owner",
          "type": "address"
        },
        {
          "indexed": true,
          "internalType": "address",
          "name": "approved",
          "type": "address"
        },
        {
          "indexed": true,
          "internalType": "uint256",
          "name": "tokenId",
          "type": "uint256"
        }
      ],
      "name": "Approval",
      "type": "event"
    },
    {
      "anonymous": false,
      "inputs": [
        {
          "indexed": true,
          "internalType": "address",
          "name": "owner",
          "type": "address"
        },
        {
          "indexed": true,
          "internalType": "address",
          "name": "operator",
          "type": "address"
        },
        {
          "indexed": false,
          "internalType": "bool",
          "name": "approved",
          "type": "bool"
        }
      ],
      "name": "ApprovalForAll",
      "type": "event"
    },
    {
      "anonymous": false,
      "inputs": [
        {
          "indexed": true,
          "internalType": "address",
          "name": "previousOwner",
          "type": "address"
        },
        {
          "indexed": true,
          "internalType": "address",
          "name": "newOwner",
          "type": "address"
        }
      ],
      "name": "OwnershipTransferred",
      "type": "event"
    },
    {
      "anonymous": false,
      "inputs": [
        {
          "indexed": true,
          "internalType": "address",
          "name": "from",
          "type": "address"
        },
        {
          "indexed": true,
          "internalType": "address",
          "name": "to",
          "type": "address"
        },
        {
          "indexed": true,
          "internalType": "uint256",
          "name": "tokenId",
          "type": "uint256"
        }
      ],
      "name": "Transfer",
      "type": "event"
    },
    {
      "inputs": [
        {
          "internalType": "address",
          "name": "to",
          "type": "address"
        },
        {
          "internalType": "uint256",
          "name": "tokenId",
          "type": "uint256"
        }
      ],
      "name": "approve",
      "outputs": [],
      "stateMutability": "nonpayable",
      "type": "function"
    },
    {
      "inputs": [
        {
          "internalType": "address",
          "name": "owner",
          "type": "address"
        }
      ],
      "name": "balanceOf",
      "outputs": [
        {
          "internalType": "uint256",
          "name": "",
          "type": "uint256"
        }
      ],
      "stateMutability": "view",
      "type": "function"
    },
    {
      "inputs": [
        {
          "internalType": "uint256",
          "name": "tokenId",
          "type": "uint256"
        }
      ],
      "name": "burn",
      "outputs": [],
      "stateMutability": "nonpayable",
      "type": "function"
    },
    {
      "inputs": [
        {
          "internalType": "uint256",
          "name": "tokenId",
          "type": "uint256"
        }
      ],
      "name": "getApproved",
      "outputs": [
        {
          "internalType": "address",
          "name": "",
          "type": "address"
        }
      ],
      "stateMutability": "view",
      "type": "function"
    },
    {
      "inputs": [
        {
          "internalType": "address",
          "name": "owner",
          "type": "address"
        },
        {
          "internalType": "address",
          "name": "operator",
          "type": "address"
        }
      ],
      "name": "isApprovedForAll",
      "outputs": [
        {
          "internalType": "bool",
          "name": "",
          "type": "bool"
        }
      ],
      "stateMutability": "view",
      "type": "function"
    },
    {
      "inputs": [
        {
          "internalType": "address",
          "name": "to",
          "type": "address"
        },
        {
          "internalType": "uint256",
          "name": "tokenId",
          "type": "uint256"
        }
      ],
      "name": "mint",
      "outputs": [],
      "stateMutability": "nonpayable",
      "type": "function"
    },
    {
      "inputs": [],
      "name": "name",
      "outputs": [
        {
          "internalType": "string",
          "name": "",
          "type": "string"
        }
      ],
      "stateMutability": "view",
      "type": "function"
    },
    {
      "inputs": [],
      "name": "owner",
      "outputs": [
        {
          "internalType": "address",
          "name": "",
          "type": "address"
        }
      ],
      "stateMutability": "view",
      "type": "function"
    },
    {
      "inputs": [
        {
          "internalType": "uint256",
          "name": "tokenId",
          "type": "uint256"
        }
      ],
      "name": "ownerOf",
      "outputs": [
        {
          "internalType": "address",
          "name": "",
          "type": "address"
        }
      ],
      "stateMutability": "view",
      "type": "function"
    },
    {
      "inputs": [],
      "name": "renounceOwnership",
      "outputs": [],
      "stateMutability": "nonpayable",
      "type": "function"
    },
    {
      "inputs": [
        {
          "internalType": "address",
          "name": "from",
          "type": "address"
        },
        {
          "internalType": "address",
          "name": "to",
          "type": "address"
        },
        {
          "internalType": "uint256",
          "name": "tokenId",
          "type": "uint256"
        }
      ],
      "name": "safeTransferFrom",
      "outputs": [],
      "stateMutability": "nonpayable",
      "type": "function"
    },
    {
      "inputs": [
        {
          "internalType": "address",
          "name": "from",
          "type": "address"
        },
        {
          "internalType": "address",
          "name": "to",
          "type": "address"
        },
        {
          "internalType": "uint256",
          "name": "tokenId",
          "type": "uint256"
        },
        {
          "internalType": "bytes",
          "name": "data",
          "type": "bytes"
        }
      ],
      "name": "safeTransferFrom",
      "outputs": [],
      "stateMutability": "nonpayable",
      "type": "function"
    },
    {
      "inputs": [
        {
          "internalType": "address",
          "name": "operator",
          "type": "address"
        },
        {
          "internalType": "bool",
          "name": "approved",
          "type": "bool"
        }
      ],
      "name": "setApprovalForAll",
      "outputs": [],
      "stateMutability": "nonpayable",
      "type": "function"
    },
    {
      "inputs": [
        {
          "internalType": "string",
          "name": "buri",
          "type": "string"
        }
      ],
      "name": "setBaseURI",
      "outputs": [],
      "stateMutability": "nonpayable",
      "type": "function"
    },
    {
      "inputs": [
        {
          "internalType": "bytes4",
          "name": "interfaceId",
          "type": "bytes4"
        }
      ],
      "name": "supportsInterface",
      "outputs": [
        {
          "internalType": "bool",
          "name": "",
          "type": "bool"
        }
      ],
      "stateMutability": "view",
      "type": "function"
    },
    {
      "inputs": [],
      "name": "symbol",
      "outputs": [
        {
          "internalType": "string",
          "name": "",
          "type": "string"
        }
      ],
      "stateMutability": "view",
      "type": "function"
    },
    {
      "inputs": [
        {
          "internalType": "uint256",
          "name": "index",
          "type": "uint256"
        }
      ],
      "name": "tokenByIndex",
      "outputs": [
        {
          "internalType": "uint256",
          "name": "",
          "type": "uint256"
        }
      ],
      "stateMutability": "view",
      "type": "function"
    },
    {
      "inputs": [
        {
          "internalType": "address",
          "name": "owner",
          "type": "address"
        },
        {
          "internalType": "uint256",
          "name": "index",
          "type": "uint256"
        }
      ],
      "name": "tokenOfOwnerByIndex",
      "outputs": [
        {
          "internalType": "uint256",
          "name": "",
          "type": "uint256"
        }
      ],
      "stateMutability": "view",
      "type": "function"
    },
    {
      "inputs": [
        {
          "internalType": "uint256",
          "name": "_tokenId",
          "type": "uint256"
        }
      ],
      "name": "tokenURI",
      "outputs": [
        {
          "internalType": "string",
          "name": "",
          "type": "string"
        }
      ],
      "stateMutability": "view",
      "type": "function"
    },
    {
      "inputs": [],
      "name": "totalSupply",
      "outputs": [
        {
          "internalType": "uint256",
          "name": "",
          "type": "uint256"
        }
      ],
      "stateMutability": "view",
      "type": "function"
    },
    {
      "inputs": [
        {
          "internalType": "address",
          "name": "from",
          "type": "address"
        },
        {
          "internalType": "address",
          "name": "to",
          "type": "address"
        },
        {
          "internalType": "uint256",
          "name": "tokenId",
          "type": "uint256"
        }
      ],
      "name": "transferFrom",
      "outputs": [],
      "stateMutability": "nonpayable",
      "type": "function"
    },
    {
      "inputs": [
        {
          "internalType": "address",
          "name": "newOwner",
          "type": "address"
        }
      ],
      "name": "transferOwnership",
      "outputs": [],
      "stateMutability": "nonpayable",
      "type": "function"
    }
  ],
  "bytecode": "0x60806040523480156200001157600080fd5b506040518060400160405280600d81526020017f5041525459424f4152444e4654000000000000000000000000000000000000008152506040518060400160405280600581526020017f50424e4654000000000000000000000000000000000000000000000000000000815250816000908051906020019062000096929190620001a6565b508060019080519060200190620000af929190620001a6565b505050620000d2620000c6620000d860201b60201c565b620000e060201b60201c565b620002bb565b600033905090565b6000600a60009054906101000a900473ffffffffffffffffffffffffffffffffffffffff16905081600a60006101000a81548173ffffffffffffffffffffffffffffffffffffffff021916908373ffffffffffffffffffffffffffffffffffffffff1602179055508173ffffffffffffffffffffffffffffffffffffffff168173ffffffffffffffffffffffffffffffffffffffff167f8be0079c531659141344cd1fd0a4f28419497f9722a3daafe3b4186f6b6457e060405160405180910390a35050565b828054620001b49062000256565b90600052602060002090601f016020900481019282620001d8576000855562000224565b82601f10620001f357805160ff191683800117855562000224565b8280016001018555821562000224579182015b828111156200022357825182559160200191906001019062000206565b5b50905062000233919062000237565b5090565b5b808211156200025257600081600090555060010162000238565b5090565b600060028204905060018216806200026f57607f821691505b602082108114156200028657620002856200028c565b5b50919050565b7f4e487b7100000000000000000000000000000000000000000000000000000000600052602260045260246000fd5b6135cf80620002cb6000396000f3fe608060405234801561001057600080fd5b50600436106101425760003560e01c806355f804b3116100b857806395d89b411161007c57806395d89b4114610373578063a22cb46514610391578063b88d4fde146103ad578063c87b56dd146103c9578063e985e9c5146103f9578063f2fde38b1461042957610142565b806355f804b3146102cf5780636352211e146102eb57806370a082311461031b578063715018a61461034b5780638da5cb5b1461035557610142565b806323b872dd1161010a57806323b872dd146101ff5780632f745c591461021b57806340c10f191461024b57806342842e0e1461026757806342966c68146102835780634f6ccce71461029f57610142565b806301ffc9a71461014757806306fdde0314610177578063081812fc14610195578063095ea7b3146101c557806318160ddd146101e1575b600080fd5b610161600480360381019061015c9190612530565b610445565b60405161016e9190612a47565b60405180910390f35b61017f6104bf565b60405161018c9190612a62565b60405180910390f35b6101af60048036038101906101aa91906125c3565b610551565b6040516101bc91906129e0565b60405180910390f35b6101df60048036038101906101da91906124f4565b610597565b005b6101e96106af565b6040516101f69190612ca4565b60405180910390f35b610219600480360381019061021491906123ee565b6106bc565b005b610235600480360381019061023091906124f4565b61071c565b6040516102429190612ca4565b60405180910390f35b610265600480360381019061026091906124f4565b6107c1565b005b610281600480360381019061027c91906123ee565b6107d7565b005b61029d600480360381019061029891906125c3565b6107f7565b005b6102b960048036038101906102b491906125c3565b610853565b6040516102c69190612ca4565b60405180910390f35b6102e960048036038101906102e49190612582565b6108ea565b005b610305600480360381019061030091906125c3565b610950565b60405161031291906129e0565b60405180910390f35b61033560048036038101906103309190612389565b610a02565b6040516103429190612ca4565b60405180910390f35b610353610aba565b005b61035d610ace565b60405161036a91906129e0565b60405180910390f35b61037b610af8565b6040516103889190612a62565b60405180910390f35b6103ab60048036038101906103a691906124b8565b610b8a565b005b6103c760048036038101906103c2919061243d565b610ba0565b005b6103e360048036038101906103de91906125c3565b610c02565b6040516103f09190612a62565b60405180910390f35b610413600480360381019061040e91906123b2565b610c5b565b6040516104209190612a47565b60405180910390f35b610443600480360381019061043e9190612389565b610cef565b005b60007f780e9d63000000000000000000000000000000000000000000000000000000007bffffffffffffffffffffffffffffffffffffffffffffffffffffffff1916827bffffffffffffffffffffffffffffffffffffffffffffffffffffffff191614806104b857506104b782610d73565b5b9050919050565b6060600080546104ce90612f0f565b80601f01602080910402602001604051908101604052809291908181526020018280546104fa90612f0f565b80156105475780601f1061051c57610100808354040283529160200191610547565b820191906000526020600020905b81548152906001019060200180831161052a57829003601f168201915b5050505050905090565b600061055c82610e55565b6004600083815260200190815260200160002060009054906101000a900473ffffffffffffffffffffffffffffffffffffffff169050919050565b60006105a282610950565b90508073ffffffffffffffffffffffffffffffffffffffff168373ffffffffffffffffffffffffffffffffffffffff161415610613576040517f08c379a000000000000000000000000000000000000000000000000000000000815260040161060a90612c44565b60405180910390fd5b8073ffffffffffffffffffffffffffffffffffffffff16610632610ea0565b73ffffffffffffffffffffffffffffffffffffffff16148061066157506106608161065b610ea0565b610c5b565b5b6106a0576040517f08c379a000000000000000000000000000000000000000000000000000000000815260040161069790612bc4565b60405180910390fd5b6106aa8383610ea8565b505050565b6000600880549050905090565b6106cd6106c7610ea0565b82610f61565b61070c576040517f08c379a000000000000000000000000000000000000000000000000000000000815260040161070390612c84565b60405180910390fd5b610717838383610ff6565b505050565b600061072783610a02565b8210610768576040517f08c379a000000000000000000000000000000000000000000000000000000000815260040161075f90612a84565b60405180910390fd5b600660008473ffffffffffffffffffffffffffffffffffffffff1673ffffffffffffffffffffffffffffffffffffffff168152602001908152602001600020600083815260200190815260200160002054905092915050565b6107c961125d565b6107d382826112db565b5050565b6107f283838360405180602001604052806000815250610ba0565b505050565b610808610802610ea0565b82610f61565b610847576040517f08c379a000000000000000000000000000000000000000000000000000000000815260040161083e90612b84565b60405180910390fd5b610850816112f9565b50565b600061085d6106af565b821061089e576040517f08c379a000000000000000000000000000000000000000000000000000000000815260040161089590612c64565b60405180910390fd5b600882815481106108d8577f4e487b7100000000000000000000000000000000000000000000000000000000600052603260045260246000fd5b90600052602060002001549050919050565b6108f261125d565b6000815111610936576040517f08c379a000000000000000000000000000000000000000000000000000000000815260040161092d90612b24565b60405180910390fd5b80600b908051906020019061094c9291906121ad565b5050565b6000806002600084815260200190815260200160002060009054906101000a900473ffffffffffffffffffffffffffffffffffffffff169050600073ffffffffffffffffffffffffffffffffffffffff168173ffffffffffffffffffffffffffffffffffffffff1614156109f9576040517f08c379a00000000000000000000000000000000000000000000000000000000081526004016109f090612c24565b60405180910390fd5b80915050919050565b60008073ffffffffffffffffffffffffffffffffffffffff168273ffffffffffffffffffffffffffffffffffffffff161415610a73576040517f08c379a0000000000000000000000000000000000000000000000000000000008152600401610a6a90612ba4565b60405180910390fd5b600360008373ffffffffffffffffffffffffffffffffffffffff1673ffffffffffffffffffffffffffffffffffffffff168152602001908152602001600020549050919050565b610ac261125d565b610acc6000611416565b565b6000600a60009054906101000a900473ffffffffffffffffffffffffffffffffffffffff16905090565b606060018054610b0790612f0f565b80601f0160208091040260200160405190810160405280929190818152602001828054610b3390612f0f565b8015610b805780601f10610b5557610100808354040283529160200191610b80565b820191906000526020600020905b815481529060010190602001808311610b6357829003601f168201915b5050505050905090565b610b9c610b95610ea0565b83836114dc565b5050565b610bb1610bab610ea0565b83610f61565b610bf0576040517f08c379a0000000000000000000000000000000000000000000000000000000008152600401610be790612c84565b60405180910390fd5b610bfc84848484611649565b50505050565b6060610c0d826116a5565b610c2857604051806020016040528060008152509050610c56565b600b610c3383611711565b604051602001610c449291906129b1565b60405160208183030381529060405290505b919050565b6000600560008473ffffffffffffffffffffffffffffffffffffffff1673ffffffffffffffffffffffffffffffffffffffff16815260200190815260200160002060008373ffffffffffffffffffffffffffffffffffffffff1673ffffffffffffffffffffffffffffffffffffffff16815260200190815260200160002060009054906101000a900460ff16905092915050565b610cf761125d565b600073ffffffffffffffffffffffffffffffffffffffff168173ffffffffffffffffffffffffffffffffffffffff161415610d67576040517f08c379a0000000000000000000000000000000000000000000000000000000008152600401610d5e90612ac4565b60405180910390fd5b610d7081611416565b50565b60007f80ac58cd000000000000000000000000000000000000000000000000000000007bffffffffffffffffffffffffffffffffffffffffffffffffffffffff1916827bffffffffffffffffffffffffffffffffffffffffffffffffffffffff19161480610e3e57507f5b5e139f000000000000000000000000000000000000000000000000000000007bffffffffffffffffffffffffffffffffffffffffffffffffffffffff1916827bffffffffffffffffffffffffffffffffffffffffffffffffffffffff1916145b80610e4e5750610e4d826118be565b5b9050919050565b610e5e816116a5565b610e9d576040517f08c379a0000000000000000000000000000000000000000000000000000000008152600401610e9490612c24565b60405180910390fd5b50565b600033905090565b816004600083815260200190815260200160002060006101000a81548173ffffffffffffffffffffffffffffffffffffffff021916908373ffffffffffffffffffffffffffffffffffffffff160217905550808273ffffffffffffffffffffffffffffffffffffffff16610f1b83610950565b73ffffffffffffffffffffffffffffffffffffffff167f8c5be1e5ebec7d5bd14f71427d1e84f3dd0314c0f7b2291e5b200ac8c7c3b92560405160405180910390a45050565b600080610f6d83610950565b90508073ffffffffffffffffffffffffffffffffffffffff168473ffffffffffffffffffffffffffffffffffffffff161480610faf5750610fae8185610c5b565b5b80610fed57508373ffffffffffffffffffffffffffffffffffffffff16610fd584610551565b73ffffffffffffffffffffffffffffffffffffffff16145b91505092915050565b8273ffffffffffffffffffffffffffffffffffffffff1661101682610950565b73ffffffffffffffffffffffffffffffffffffffff161461106c576040517f08c379a000000000000000000000000000000000000000000000000000000000815260040161106390612ae4565b60405180910390fd5b600073ffffffffffffffffffffffffffffffffffffffff168273ffffffffffffffffffffffffffffffffffffffff1614156110dc576040517f08c379a00000000000000000000000000000000000000000000000000000000081526004016110d390612b44565b60405180910390fd5b6110e7838383611928565b6110f2600082610ea8565b6001600360008573ffffffffffffffffffffffffffffffffffffffff1673ffffffffffffffffffffffffffffffffffffffff16815260200190815260200160002060008282546111429190612e25565b925050819055506001600360008473ffffffffffffffffffffffffffffffffffffffff1673ffffffffffffffffffffffffffffffffffffffff16815260200190815260200160002060008282546111999190612d9e565b92505081905550816002600083815260200190815260200160002060006101000a81548173ffffffffffffffffffffffffffffffffffffffff021916908373ffffffffffffffffffffffffffffffffffffffff160217905550808273ffffffffffffffffffffffffffffffffffffffff168473ffffffffffffffffffffffffffffffffffffffff167fddf252ad1be2c89b69c2b068fc378daa952ba7f163c4a11628f55a4df523b3ef60405160405180910390a4611258838383611a3c565b505050565b611265610ea0565b73ffffffffffffffffffffffffffffffffffffffff16611283610ace565b73ffffffffffffffffffffffffffffffffffffffff16146112d9576040517f08c379a00000000000000000000000000000000000000000000000000000000081526004016112d090612c04565b60405180910390fd5b565b6112f5828260405180602001604052806000815250611a41565b5050565b600061130482610950565b905061131281600084611928565b61131d600083610ea8565b6001600360008373ffffffffffffffffffffffffffffffffffffffff1673ffffffffffffffffffffffffffffffffffffffff168152602001908152602001600020600082825461136d9190612e25565b925050819055506002600083815260200190815260200160002060006101000a81549073ffffffffffffffffffffffffffffffffffffffff021916905581600073ffffffffffffffffffffffffffffffffffffffff168273ffffffffffffffffffffffffffffffffffffffff167fddf252ad1be2c89b69c2b068fc378daa952ba7f163c4a11628f55a4df523b3ef60405160405180910390a461141281600084611a3c565b5050565b6000600a60009054906101000a900473ffffffffffffffffffffffffffffffffffffffff16905081600a60006101000a81548173ffffffffffffffffffffffffffffffffffffffff021916908373ffffffffffffffffffffffffffffffffffffffff1602179055508173ffffffffffffffffffffffffffffffffffffffff168173ffffffffffffffffffffffffffffffffffffffff167f8be0079c531659141344cd1fd0a4f28419497f9722a3daafe3b4186f6b6457e060405160405180910390a35050565b8173ffffffffffffffffffffffffffffffffffffffff168373ffffffffffffffffffffffffffffffffffffffff16141561154b576040517f08c379a000000000000000000000000000000000000000000000000000000000815260040161154290612b64565b60405180910390fd5b80600560008573ffffffffffffffffffffffffffffffffffffffff1673ffffffffffffffffffffffffffffffffffffffff16815260200190815260200160002060008473ffffffffffffffffffffffffffffffffffffffff1673ffffffffffffffffffffffffffffffffffffffff16815260200190815260200160002060006101000a81548160ff0219169083151502179055508173ffffffffffffffffffffffffffffffffffffffff168373ffffffffffffffffffffffffffffffffffffffff167f17307eab39ab6107e8899845ad3d59bd9653f200f220920489ca2b5937696c318360405161163c9190612a47565b60405180910390a3505050565b611654848484610ff6565b61166084848484611a9c565b61169f576040517f08c379a000000000000000000000000000000000000000000000000000000000815260040161169690612aa4565b60405180910390fd5b50505050565b60008073ffffffffffffffffffffffffffffffffffffffff166002600084815260200190815260200160002060009054906101000a900473ffffffffffffffffffffffffffffffffffffffff1673ffffffffffffffffffffffffffffffffffffffff1614159050919050565b60606000821415611759576040518060400160405280600181526020017f300000000000000000000000000000000000000000000000000000000000000081525090506118b9565b600082905060005b6000821461178b57808061177490612f72565b915050600a826117849190612df4565b9150611761565b60008167ffffffffffffffff8111156117cd577f4e487b7100000000000000000000000000000000000000000000000000000000600052604160045260246000fd5b6040519080825280601f01601f1916602001820160405280156117ff5781602001600182028036833780820191505090505b5090505b600085146118b2576001826118189190612e25565b9150600a856118279190612fbb565b60306118339190612d9e565b60f81b81838151811061186f577f4e487b7100000000000000000000000000000000000000000000000000000000600052603260045260246000fd5b60200101907effffffffffffffffffffffffffffffffffffffffffffffffffffffffffffff1916908160001a905350600a856118ab9190612df4565b9450611803565b8093505050505b919050565b60007f01ffc9a7000000000000000000000000000000000000000000000000000000007bffffffffffffffffffffffffffffffffffffffffffffffffffffffff1916827bffffffffffffffffffffffffffffffffffffffffffffffffffffffff1916149050919050565b611933838383611c33565b600073ffffffffffffffffffffffffffffffffffffffff168373ffffffffffffffffffffffffffffffffffffffff1614156119765761197181611c38565b6119b5565b8173ffffffffffffffffffffffffffffffffffffffff168373ffffffffffffffffffffffffffffffffffffffff16146119b4576119b38382611c81565b5b5b600073ffffffffffffffffffffffffffffffffffffffff168273ffffffffffffffffffffffffffffffffffffffff1614156119f8576119f381611dee565b611a37565b8273ffffffffffffffffffffffffffffffffffffffff168273ffffffffffffffffffffffffffffffffffffffff1614611a3657611a358282611f31565b5b5b505050565b505050565b611a4b8383611fb0565b611a586000848484611a9c565b611a97576040517f08c379a0000000000000000000000000000000000000000000000000000000008152600401611a8e90612aa4565b60405180910390fd5b505050565b6000611abd8473ffffffffffffffffffffffffffffffffffffffff1661218a565b15611c26578373ffffffffffffffffffffffffffffffffffffffff1663150b7a02611ae6610ea0565b8786866040518563ffffffff1660e01b8152600401611b0894939291906129fb565b602060405180830381600087803b158015611b2257600080fd5b505af1925050508015611b5357506040513d601f19601f82011682018060405250810190611b509190612559565b60015b611bd6573d8060008114611b83576040519150601f19603f3d011682016040523d82523d6000602084013e611b88565b606091505b50600081511415611bce576040517f08c379a0000000000000000000000000000000000000000000000000000000008152600401611bc590612aa4565b60405180910390fd5b805181602001fd5b63150b7a0260e01b7bffffffffffffffffffffffffffffffffffffffffffffffffffffffff1916817bffffffffffffffffffffffffffffffffffffffffffffffffffffffff191614915050611c2b565b600190505b949350505050565b505050565b6008805490506009600083815260200190815260200160002081905550600881908060018154018082558091505060019003906000526020600020016000909190919091505550565b60006001611c8e84610a02565b611c989190612e25565b9050600060076000848152602001908152602001600020549050818114611d7d576000600660008673ffffffffffffffffffffffffffffffffffffffff1673ffffffffffffffffffffffffffffffffffffffff168152602001908152602001600020600084815260200190815260200160002054905080600660008773ffffffffffffffffffffffffffffffffffffffff1673ffffffffffffffffffffffffffffffffffffffff168152602001908152602001600020600084815260200190815260200160002081905550816007600083815260200190815260200160002081905550505b6007600084815260200190815260200160002060009055600660008573ffffffffffffffffffffffffffffffffffffffff1673ffffffffffffffffffffffffffffffffffffffff16815260200190815260200160002060008381526020019081526020016000206000905550505050565b60006001600880549050611e029190612e25565b9050600060096000848152602001908152602001600020549050600060088381548110611e58577f4e487b7100000000000000000000000000000000000000000000000000000000600052603260045260246000fd5b906000526020600020015490508060088381548110611ea0577f4e487b7100000000000000000000000000000000000000000000000000000000600052603260045260246000fd5b906000526020600020018190555081600960008381526020019081526020016000208190555060096000858152602001908152602001600020600090556008805480611f15577f4e487b7100000000000000000000000000000000000000000000000000000000600052603160045260246000fd5b6001900381819060005260206000200160009055905550505050565b6000611f3c83610a02565b905081600660008573ffffffffffffffffffffffffffffffffffffffff1673ffffffffffffffffffffffffffffffffffffffff168152602001908152602001600020600083815260200190815260200160002081905550806007600084815260200190815260200160002081905550505050565b600073ffffffffffffffffffffffffffffffffffffffff168273ffffffffffffffffffffffffffffffffffffffff161415612020576040517f08c379a000000000000000000000000000000000000000000000000000000000815260040161201790612be4565b60405180910390fd5b612029816116a5565b15612069576040517f08c379a000000000000000000000000000000000000000000000000000000000815260040161206090612b04565b60405180910390fd5b61207560008383611928565b6001600360008473ffffffffffffffffffffffffffffffffffffffff1673ffffffffffffffffffffffffffffffffffffffff16815260200190815260200160002060008282546120c59190612d9e565b92505081905550816002600083815260200190815260200160002060006101000a81548173ffffffffffffffffffffffffffffffffffffffff021916908373ffffffffffffffffffffffffffffffffffffffff160217905550808273ffffffffffffffffffffffffffffffffffffffff16600073ffffffffffffffffffffffffffffffffffffffff167fddf252ad1be2c89b69c2b068fc378daa952ba7f163c4a11628f55a4df523b3ef60405160405180910390a461218660008383611a3c565b5050565b6000808273ffffffffffffffffffffffffffffffffffffffff163b119050919050565b8280546121b990612f0f565b90600052602060002090601f0160209004810192826121db5760008555612222565b82601f106121f457805160ff1916838001178555612222565b82800160010185558215612222579182015b82811115612221578251825591602001919060010190612206565b5b50905061222f9190612233565b5090565b5b8082111561224c576000816000905550600101612234565b5090565b600061226361225e84612ce4565b612cbf565b90508281526020810184848401111561227b57600080fd5b612286848285612ecd565b509392505050565b60006122a161229c84612d15565b612cbf565b9050828152602081018484840111156122b957600080fd5b6122c4848285612ecd565b509392505050565b6000813590506122db8161353d565b92915050565b6000813590506122f081613554565b92915050565b6000813590506123058161356b565b92915050565b60008151905061231a8161356b565b92915050565b600082601f83011261233157600080fd5b8135612341848260208601612250565b91505092915050565b600082601f83011261235b57600080fd5b813561236b84826020860161228e565b91505092915050565b60008135905061238381613582565b92915050565b60006020828403121561239b57600080fd5b60006123a9848285016122cc565b91505092915050565b600080604083850312156123c557600080fd5b60006123d3858286016122cc565b92505060206123e4858286016122cc565b9150509250929050565b60008060006060848603121561240357600080fd5b6000612411868287016122cc565b9350506020612422868287016122cc565b925050604061243386828701612374565b9150509250925092565b6000806000806080858703121561245357600080fd5b6000612461878288016122cc565b9450506020612472878288016122cc565b935050604061248387828801612374565b925050606085013567ffffffffffffffff8111156124a057600080fd5b6124ac87828801612320565b91505092959194509250565b600080604083850312156124cb57600080fd5b60006124d9858286016122cc565b92505060206124ea858286016122e1565b9150509250929050565b6000806040838503121561250757600080fd5b6000612515858286016122cc565b925050602061252685828601612374565b9150509250929050565b60006020828403121561254257600080fd5b6000612550848285016122f6565b91505092915050565b60006020828403121561256b57600080fd5b60006125798482850161230b565b91505092915050565b60006020828403121561259457600080fd5b600082013567ffffffffffffffff8111156125ae57600080fd5b6125ba8482850161234a565b91505092915050565b6000602082840312156125d557600080fd5b60006125e384828501612374565b91505092915050565b6125f581612e59565b82525050565b61260481612e6b565b82525050565b600061261582612d5b565b61261f8185612d71565b935061262f818560208601612edc565b612638816130a8565b840191505092915050565b600061264e82612d66565b6126588185612d82565b9350612668818560208601612edc565b612671816130a8565b840191505092915050565b600061268782612d66565b6126918185612d93565b93506126a1818560208601612edc565b80840191505092915050565b600081546126ba81612f0f565b6126c48186612d93565b945060018216600081146126df57600181146126f057612723565b60ff19831686528186019350612723565b6126f985612d46565b60005b8381101561271b578154818901526001820191506020810190506126fc565b838801955050505b50505092915050565b6000612739602b83612d82565b9150612744826130b9565b604082019050919050565b600061275c603283612d82565b915061276782613108565b604082019050919050565b600061277f602683612d82565b915061278a82613157565b604082019050919050565b60006127a2602583612d82565b91506127ad826131a6565b604082019050919050565b60006127c5601c83612d82565b91506127d0826131f5565b602082019050919050565b60006127e8600e83612d82565b91506127f38261321e565b602082019050919050565b600061280b602483612d82565b915061281682613247565b604082019050919050565b600061282e601983612d82565b915061283982613296565b602082019050919050565b6000612851602583612d82565b915061285c826132bf565b604082019050919050565b6000612874602983612d82565b915061287f8261330e565b604082019050919050565b6000612897603e83612d82565b91506128a28261335d565b604082019050919050565b60006128ba602083612d82565b91506128c5826133ac565b602082019050919050565b60006128dd600583612d93565b91506128e8826133d5565b600582019050919050565b6000612900602083612d82565b915061290b826133fe565b602082019050919050565b6000612923601883612d82565b915061292e82613427565b602082019050919050565b6000612946602183612d82565b915061295182613450565b604082019050919050565b6000612969602c83612d82565b91506129748261349f565b604082019050919050565b600061298c602e83612d82565b9150612997826134ee565b604082019050919050565b6129ab81612ec3565b82525050565b60006129bd82856126ad565b91506129c9828461267c565b91506129d4826128d0565b91508190509392505050565b60006020820190506129f560008301846125ec565b92915050565b6000608082019050612a1060008301876125ec565b612a1d60208301866125ec565b612a2a60408301856129a2565b8181036060830152612a3c818461260a565b905095945050505050565b6000602082019050612a5c60008301846125fb565b92915050565b60006020820190508181036000830152612a7c8184612643565b905092915050565b60006020820190508181036000830152612a9d8161272c565b9050919050565b60006020820190508181036000830152612abd8161274f565b9050919050565b60006020820190508181036000830152612add81612772565b9050919050565b60006020820190508181036000830152612afd81612795565b9050919050565b60006020820190508181036000830152612b1d816127b8565b9050919050565b60006020820190508181036000830152612b3d816127db565b9050919050565b60006020820190508181036000830152612b5d816127fe565b9050919050565b60006020820190508181036000830152612b7d81612821565b9050919050565b60006020820190508181036000830152612b9d81612844565b9050919050565b60006020820190508181036000830152612bbd81612867565b9050919050565b60006020820190508181036000830152612bdd8161288a565b9050919050565b60006020820190508181036000830152612bfd816128ad565b9050919050565b60006020820190508181036000830152612c1d816128f3565b9050919050565b60006020820190508181036000830152612c3d81612916565b9050919050565b60006020820190508181036000830152612c5d81612939565b9050919050565b60006020820190508181036000830152612c7d8161295c565b9050919050565b60006020820190508181036000830152612c9d8161297f565b9050919050565b6000602082019050612cb960008301846129a2565b92915050565b6000612cc9612cda565b9050612cd58282612f41565b919050565b6000604051905090565b600067ffffffffffffffff821115612cff57612cfe613079565b5b612d08826130a8565b9050602081019050919050565b600067ffffffffffffffff821115612d3057612d2f613079565b5b612d39826130a8565b9050602081019050919050565b60008190508160005260206000209050919050565b600081519050919050565b600081519050919050565b600082825260208201905092915050565b600082825260208201905092915050565b600081905092915050565b6000612da982612ec3565b9150612db483612ec3565b9250827fffffffffffffffffffffffffffffffffffffffffffffffffffffffffffffffff03821115612de957612de8612fec565b5b828201905092915050565b6000612dff82612ec3565b9150612e0a83612ec3565b925082612e1a57612e1961301b565b5b828204905092915050565b6000612e3082612ec3565b9150612e3b83612ec3565b925082821015612e4e57612e4d612fec565b5b828203905092915050565b6000612e6482612ea3565b9050919050565b60008115159050919050565b60007fffffffff0000000000000000000000000000000000000000000000000000000082169050919050565b600073ffffffffffffffffffffffffffffffffffffffff82169050919050565b6000819050919050565b82818337600083830152505050565b60005b83811015612efa578082015181840152602081019050612edf565b83811115612f09576000848401525b50505050565b60006002820490506001821680612f2757607f821691505b60208210811415612f3b57612f3a61304a565b5b50919050565b612f4a826130a8565b810181811067ffffffffffffffff82111715612f6957612f68613079565b5b80604052505050565b6000612f7d82612ec3565b91507fffffffffffffffffffffffffffffffffffffffffffffffffffffffffffffffff821415612fb057612faf612fec565b5b600182019050919050565b6000612fc682612ec3565b9150612fd183612ec3565b925082612fe157612fe061301b565b5b828206905092915050565b7f4e487b7100000000000000000000000000000000000000000000000000000000600052601160045260246000fd5b7f4e487b7100000000000000000000000000000000000000000000000000000000600052601260045260246000fd5b7f4e487b7100000000000000000000000000000000000000000000000000000000600052602260045260246000fd5b7f4e487b7100000000000000000000000000000000000000000000000000000000600052604160045260246000fd5b6000601f19601f8301169050919050565b7f455243373231456e756d657261626c653a206f776e657220696e646578206f7560008201527f74206f6620626f756e6473000000000000000000000000000000000000000000602082015250565b7f4552433732313a207472616e7366657220746f206e6f6e20455243373231526560008201527f63656976657220696d706c656d656e7465720000000000000000000000000000602082015250565b7f4f776e61626c653a206e6577206f776e657220697320746865207a65726f206160008201527f6464726573730000000000000000000000000000000000000000000000000000602082015250565b7f4552433732313a207472616e736665722066726f6d20696e636f72726563742060008201527f6f776e6572000000000000000000000000000000000000000000000000000000602082015250565b7f4552433732313a20746f6b656e20616c7265616479206d696e74656400000000600082015250565b7f77726f6e67206261736520757269000000000000000000000000000000000000600082015250565b7f4552433732313a207472616e7366657220746f20746865207a65726f2061646460008201527f7265737300000000000000000000000000000000000000000000000000000000602082015250565b7f4552433732313a20617070726f766520746f2063616c6c657200000000000000600082015250565b7f6275726e2063616c6c6572206973206e6f74206f776e6572206e6f722061707060008201527f726f766564000000000000000000000000000000000000000000000000000000602082015250565b7f4552433732313a2061646472657373207a65726f206973206e6f74206120766160008201527f6c6964206f776e65720000000000000000000000000000000000000000000000602082015250565b7f4552433732313a20617070726f76652063616c6c6572206973206e6f7420746f60008201527f6b656e206f776e6572206e6f7220617070726f76656420666f7220616c6c0000602082015250565b7f4552433732313a206d696e7420746f20746865207a65726f2061646472657373600082015250565b7f2e6a736f6e000000000000000000000000000000000000000000000000000000600082015250565b7f4f776e61626c653a2063616c6c6572206973206e6f7420746865206f776e6572600082015250565b7f4552433732313a20696e76616c696420746f6b656e2049440000000000000000600082015250565b7f4552433732313a20617070726f76616c20746f2063757272656e74206f776e6560008201527f7200000000000000000000000000000000000000000000000000000000000000602082015250565b7f455243373231456e756d657261626c653a20676c6f62616c20696e646578206f60008201527f7574206f6620626f756e64730000000000000000000000000000000000000000602082015250565b7f4552433732313a2063616c6c6572206973206e6f7420746f6b656e206f776e6560008201527f72206e6f7220617070726f766564000000000000000000000000000000000000602082015250565b61354681612e59565b811461355157600080fd5b50565b61355d81612e6b565b811461356857600080fd5b50565b61357481612e77565b811461357f57600080fd5b50565b61358b81612ec3565b811461359657600080fd5b5056fea2646970667358221220fa4abcc6d791d5ef989da9a292ff120b43d3cf102b144e9dae01c0e671547bbc64736f6c63430008010033",
  "linkReferences": {},
  "deployedLinkReferences": {}
}